:1000000048C0C3C5E9C56AC069C068C067C066C0EA
:1000100065C064C063C062C061C060C05FC05EC0D4
:100020000EC65CC022C453C459C058C057C056C085
:1000300055C054C000000009000302000004050878
:100040000000000000000000000000010204081091
:100050002040800102040810200102040810204002
:1000600080400404040404040404020202020202A4
:10007000030303030303020203000000002500281A
:10008000002B0000000000240027002A00000D03C0
:10009000950411241FBECFEFD4E0DEBFCDBF11E029
:1000A000A0E0B1E0E4E8F0E102C005900D92AE36C8
:1000B000B107D9F722E0AEE6B1E001C01D92AB3343
:1000C000B207E1F710E0C9E4D0E003C02197FE01D8
:1000D000D1D7C734D107D1F7A8D5D2C791CF26E061
:1000E00040E855E260E070E085E991E05BD364E0D0
:1000F00071E085E991E090D440E45EE06FEC79E155
:1001000085E791E031D2892B31F460E171E085E936
:1001100091E082D4FFCF089566E271E085E991E035
:1001200070D460916E0170916F014AE050E085E9F2
:1001300091E014D560E070E085E791E0F9D167E3E4
:1001400071E085E791E05DD460916E0170916F017F
:100150004AE050E085E791E0FBD485E791E0FDD0EF
:1001600080916E0190916F01019690936F01809341
:100170006E0168EE73E080E090E0D0C5CF93CFB71A
:10018000F89480917301811123C0ECE6F0E0849132
:10019000E5E5F0E09491E82FF0E0EE0FFF1FED575A
:1001A000FF4FA591B491EC91E92319F461E08AE045
:1001B0008ED661E08AE04FD68CB580618CBD8CB55F
:1001C00080648CBD61E08DE046D661E08BE043D673
:1001D000809173018F5F80937301CFBFCF9108959A
:1001E000CF93DF931F92CDB7DEB76983DC01ED912A
:1001F000FC910280F381E02D41E050E0BE016F5F91
:100200007F4F09950F90DF91CF9108950895FC01DC
:100210001382128288EE93E0A0E0B0E0848395839D
:10022000A683B78382E491E09183808380E584870D
:1002300081E0858784E791E0978786878AE090E070
:10024000918B808B89E090E0938B828B82E090E0B1
:10025000958B848B168A178A108E118E138E128EB0
:10026000158E148E178E168E40E050E0BA01CF0125
:1002700085C40F931F93CF93DF93EC01062F142FA8
:1002800060E0888924D64C853D8580917201882361
:1002900099F02FB7F89480917201813059F48DB3A1
:1002A000809370019DB380917101809589238DBBEE
:1002B0002FBF02C0209370014CBD3DBD0EBD00009C
:1002C0000DB407FEFDCF8EB51EBD00000DB407FEB8
:1002D000FDCF1EB580917201882361F09FB7F8941D
:1002E0002091720180917001213019F48DBB9FBF64
:1002F00001C08FBF61E08889EAD5812FDF91CF915E
:100300001F910F9108956F7740E0B3CFCF93DF93A4
:10031000EC0163E1F8DF90E02A8D3B8D821B930BAB
:10032000DF91CF910895CF93DF93EC01E881F981BC
:100330000480F581E02D0995892B51F08A8D9B8DE4
:1003400001969B8F8A8F60E0CE01DDDF90E002C0D6
:100350008FEF9FEFDF91CF910895CF93DF93EC0163
:1003600043E861E886DF62E1CE01CDDF83FD02C0B4
:100370005AD4F9CF48E062E9CE017BDF81E090E01A
:10038000DF91CF910895AF92BF92CF92DF92FF920B
:100390000F931F93CF93DF936C015B01EA0162E23D
:1003A000B2DFF82E90E09C012C0F3D1F2F3F31054E
:1003B00029F020F0CFEFD0E0C81BD90B8501AC0E9F
:1003C000BD1E0A151B0539F0F80141918F0160E847
:1003D000C6014FDFF6CF4C2F4F0D62EAC60149DF51
:1003E000CE01DF91CF911F910F91FF90DF90CF90C1
:1003F000BF90AF9008950F931F93CF93DF93EC01BD
:10040000E881F9810480F581E02D0995892B79F047
:100410006DE0CE0178DF082F60E0CE0174DF182F89
:10042000402F6DE8CE0125DF812F90E002C08FEFD5
:100430009FEFDF91CF911F910F91089541E861E8FF
:1004400018CF40E861E815CF9F92AF92BF92CF924C
:10045000DF92EF92FF920F931F93CF93DF93EC0104
:10046000DB01CA014E8B5F8B688F798F6A017B013C
:10047000FF0CCC08DC2C76019A01AD016C2D7C2D93
:100480008C2D9C2D03E1BFD5A12CE8E4BE2EF8EE07
:10049000CF2EDD24D394E12CF12C00E010E069D5BF
:1004A000F22E932E5A01162FC72ED82EE92E00E1D8
:1004B000C5D5422F66E8CE01DCDE2F2D392DA501F2
:1004C000612F7C2D8D2D9E2D08E0B8D5422F67E839
:1004D000CE01CFDE4F2D68E8CE01DF91CF911F9185
:1004E0000F91FF90EF90DF90CF90BF90AF909F90D3
:1004F000C0CECF93DF93EC011D8E1C8E6DE103DF28
:10050000482F4E7F6DE9CE01DF91CF91B2CECF93D0
:10051000DF93EC0181E090E09D8F8C8F6DE1CE0147
:10052000F2DE482F41606DE9CE01DF91CF91A1CE7F
:100530000F931F93CF93DF93EC018B017FDFCE01ED
:10054000012B11F0E4DF01C0D4DF40E06DE8CE0103
:1005500090DE40E062EACE018CDE81E090E0DF9147
:10056000CF911F910F910895CF92DF92EF92FF925A
:10057000CF93DF93EC016A017B0161E088896BD442
:1005800061E08889A4D48A899B898F3F2FEF9207E5
:1005900091F061E060D460E08A8999D46AE070E00B
:1005A00080E090E0BBD361E08A8991D46AE070E09A
:1005B00080E090E0B3D3E2DD62E4CE01A4DE8231DC
:1005C00019F5CE013EDFB701A601CE013DDF40E0C7
:1005D0006EE8CE014EDE40E06FE8CE014ADE6CE010
:1005E000CE0191DE482F43606CE8CE0142DE44E04C
:1005F00066EACE013EDE4FE869E8CE013ADECE0182
:100600001DDF81E090E002C080E090E0DF91CF91BB
:10061000FF90EF90DF90CF90089585E791E0F7CDC0
:10062000FC01918D228D892F90E0805C9F4F821B71
:1006300091098F7399270895FC01918D828D9817E8
:1006400031F0828DE80FF11D858D90E008958FEFD8
:100650009FEF0895FC01918D828D981761F0828D36
:10066000DF01A80FB11D5D968C91928D9F5F9F73E6
:10067000928F90E008958FEF9FEF08958CE894E0BB
:10068000892B39F080E090E0892B19F045D1811158
:10069000B7CC0895FC01848DDF01A80FB11DA35ACA
:1006A000BF4F2C91848D90E001968F739927848F92
:1006B000A689B7892C93A089B1898C9180648C9389
:1006C000938D848D981306C00288F389E02D808174
:1006D0008F7D80830895EF92FF920F931F93CF93A6
:1006E000DF93EC0181E0888F9B8D8C8D981305C082
:1006F000E889F989808185FD23C0F62E0B8D10E0F5
:100700000F5F1F4F0F731127E02E8C8DE8120BC067
:100710000FB607FCFACFE889F989808185FFF5CF0C
:10072000CE01B8DFF2CF8B8DFE01E80FF11DE35A49
:10073000FF4FF0820B8FEA89FB898081806207C0BE
:10074000EE89FF896083E889F989808180648083EC
:1007500081E090E0DF91CF911F910F91FF90EF909A
:100760000895CF93DF93EC01888D8823C1F0EA8947
:10077000FB89808185FD05C0A889B9898C9186FD9A
:100780000EC00FB607FCF5CF808185FFF2CFA88998
:10079000B9898C9185FFEDCFCE017CDFE8CFDF9169
:1007A000CF910895CF92DF92EF92FF921F93CF9354
:1007B000DF93EC016A017B01122FE889F98982E05D
:1007C00080834115514E61057105A9F060E079E023
:1007D0008DE390E0A7019601A8D3DA01C901019742
:1007E000A109B109B695A795979587959C01211503
:1007F00080E13807A0F0E889F989108260E874E8A0
:100800008EE190E0A701960190D3DA01C90101972A
:10081000A109B109B695A795979587959C01EC8597
:10082000FD853083EE85FF852083188EEC89FD8958
:100830001083EA89FB89808180618083EA89FB8952
:10084000808188608083EA89FB89808180688083D9
:10085000EA89FB8980818F7D8083DF91CF911F9111
:10086000FF90EF90DF90CF9008951F920F920FB6F8
:100870000F9211242F938F939F93EF93FF93E09107
:10088000A501F091A6018081E091AB01F091AC014E
:1008900082FD12C090818091AE018F5F8F73209195
:1008A000AF01821751F0E091AE01F0E0EB56FE4F40
:1008B000958F8093AE0101C08081FF91EF919F9150
:1008C0008F912F910F900FBE0F901F9018951F9230
:1008D0000F920FB60F9211242F933F934F935F9374
:1008E0006F937F938F939F93AF93BF93EF93FF93F8
:1008F00085E991E0CFDEFF91EF91BF91AF919F919C
:100900008F917F916F915F914F913F912F910F90B8
:100910000FBE0F901F90189585E991E081DE21E0D0
:10092000892B09F420E0822F0895E5E9F1E0138294
:10093000128288EE93E0A0E0B0E084839583A683E2
:10094000B78382E591E09183808385EC90E0958781
:10095000848784EC90E09787868780EC90E0918B89
:10096000808B81EC90E0938B828B82EC90E0958B76
:10097000848B86EC90E0978B868B118E128E138E73
:10098000148E0895CF92DF92EF92FF920F931F93F0
:10099000CF93DF936C017A018B01C0E0D0E0CE15DC
:1009A000DF0581F0D8016D918D01D601ED91FC91AB
:1009B0000190F081E02DC6010995892B11F0219657
:1009C000EECF7E01C701DF91CF911F910F91FF9074
:1009D000EF90DF90CF9008956115710579F0FB01DC
:1009E00001900020E9F73197AF01461B570BDC015E
:1009F000ED91FC910280F381E02D099480E090E07C
:100A00000895EACFDC01ED91FC910190F081E02D99
:100A100009946EE571E0E0CF0F931F93CF93DF93BE
:100A2000EC01DADF8C01CE01F4DF800F911FDF9142
:100A3000CF911F910F9108958F929F92AF92BF9285
:100A4000EF92FF920F931F93CF93DF93CDB7DEB753
:100A5000A1970FB6F894DEBF0FBECDBF7C01FA019F
:100A6000CB0119A2223008F42AE08E010F5D1F4F3E
:100A7000822E912CA12CB12CBF01A501940155D23D
:100A8000F901CA01015011096A3014F4605D01C016
:100A9000695CD8016C93232B242B252B69F7B801B3
:100AA000C7019ADFA1960FB6F894DEBF0FBECDBF87
:100AB000DF91CF911F910F91FF90EF90BF90AF907A
:100AC0009F908F900895CF92DF92EF92FF920F93B5
:100AD0001F93CF93DF932115310581F4DC01ED9154
:100AE000FC910190F081E02D642FDF91CF911F9157
:100AF0000F91FF90EF90DF90CF9009942A3031054D
:100B0000F1F477FF1BC06A017B01EC016DE27ADF33
:100B10008C0144275527BA014C195D096E097F09DC
:100B20002AE0CE0189DF800F911FDF91CF911F91C5
:100B30000F91FF90EF90DF90CF9008952AE0DF9122
:100B4000CF911F910F91FF90EF90DF90CF9074CFD6
:100B50009A01AB01770F660B770BB5CF0F931F93FD
:100B6000CF93DF93EC01F4DF8C01CE0152DF800FD5
:100B7000911FDF91CF911F910F910895FC01448344
:100B8000558366837783089508951F920F920FB659
:100B90000F9211242F933F934F935F936F937F9303
:100BA0008F939F93AF93BF93EF93FF93E0910001D7
:100BB000F09101010995FF91EF91BF91AF919F9144
:100BC0008F917F916F915F914F913F912F910F90F6
:100BD0000FBE0F901F9018951F920F920FB60F9295
:100BE00011242F933F934F935F936F937F938F9332
:100BF0009F93AF93BF93EF93FF93E0910201F09126
:100C000003010995FF91EF91BF91AF919F918F9152
:100C10007F916F915F914F913F912F910F900FBEF8
:100C20000F901F90189508950895B1D0FDDF57DA01
:100C3000CEE3D3E071DA2097E9F320DDFBCF1F92FA
:100C40000F920FB60F9211242F933F938F939F9380
:100C5000AF93BF938091330290913402A0913502FB
:100C6000B09136023091320223E0230F2D3720F469
:100C70000196A11DB11D05C026E8230F0296A11DF6
:100C8000B11D209332028093330290933402A093DB
:100C90003502B09336028091370290913802A091CC
:100CA0003902B0913A020196A11DB11D809337021D
:100CB00090933802A0933902B0933A02BF91AF915A
:100CC0009F918F913F912F910F900FBE0F901F908A
:100CD00018953FB7F8948091370290913802A0910F
:100CE0003902B0913A0226B5A89B05C02F3F19F0F2
:100CF0000196A11DB11D3FBFBA2FA92F982F88279C
:100D0000820F911DA11DB11DBC01CD0142E0660FF6
:100D1000771F881F991F4A95D1F708958F929F9248
:100D2000AF92BF92CF92DF92EF92FF926B017C0164
:100D3000D0DF4B015C01C114D104E104F104F1F0F6
:100D400072DFC7DFDC01CB0188199909AA09BB0949
:100D5000883E9340A105B10570F321E0C21AD10885
:100D6000E108F10888EE880E83E0981EA11CB11CF2
:100D7000C114D104E104F10421F7DDCFFF90EF901D
:100D8000DF90CF90BF90AF909F908F900895789410
:100D900084B5826084BD84B5816084BD85B5826080
:100DA00085BD85B5816085BDEEE6F0E0808181601E
:100DB0008083E1E8F0E0108280818260808380811E
:100DC00081608083E0E8F0E0808181608083E1EBF6
:100DD000F0E0808184608083E0EBF0E080818160DE
:100DE0008083EAE7F0E08081846080838081826094
:100DF000808380818160808380818068808310927D
:100E0000C1000895843081F028F4823099F0833055
:100E1000A1F008958830A9F08930B9F08530D1F477
:100E2000809180008F7D03C0809180008F778093B8
:100E30008000089584B58F7702C084B58F7D84BD0E
:100E400008958091B0008F7703C08091B0008F7DAE
:100E50008093B0000895CF93DF9390E0FC01E55BB1
:100E6000FF4F2491FC01EE59FF4F8491882361F1DB
:100E700090E0880F991FFC01ED57FF4FC591D49169
:100E8000FC01E758FF4FA591B491611109C09FB7CC
:100E9000F8948881209582238883EC912E230BC0BF
:100EA000623061F49FB7F8948881322F30958323A4
:100EB0008883EC912E2B2C939FBF06C08FB7F8949C
:100EC000E8812E2B28838FBFDF91CF9108951F9348
:100ED000CF93DF93282F30E0F901EC5CFF4F849132
:100EE000F901E55BFF4FD491F901EE59FF4FC49131
:100EF000CC23B9F0162F811185DFEC2FF0E0EE0F37
:100F0000FF1FE758FF4FA591B4919FB7F8941111B7
:100F100004C08C91D095D82302C0EC91DE2BDC93D9
:100F20009FBFDF91CF911F910895A1E21A2EAA1BB6
:100F3000BB1BFD010DC0AA1FBB1FEE1FFF1FA21789
:100F4000B307E407F50720F0A21BB30BE40BF50B86
:100F5000661F771F881F991F1A9469F7609570950F
:100F6000809590959B01AC01BD01CF0108956894D7
:100F700001C0E8948F929F92CF93DF9305D0DF91C9
:100F8000CF919F908F90089588249924F401E401D3
:100F9000B0E41B2ED4019D158E049F04E007F107D9
:100FA00038F4FC014B01CA01B901AD019E01169450
:100FB000220F331F441F551F661F771F881F991F5D
:100FC000881C991CEE1FFF1FCC1FDD1FAA1FBB1F13
:100FD0008A149B04EC05FD05CE05DF05A007B107CB
:100FE00048F08A189B08EC09FD09CE09DF09A00B1F
:100FF000B10B21601A94E1F62EF49401AF01BE0109
:10100000CD01000C08950F93083090F0982F872F92
:10101000762F652F542F432F322F22270850F4CFDD
:10102000220F331F441F551F661F771F881F991FEC
:101030000A95B2F70F91089597FB10F816940008DF
:101040000F93083098F00850232F342F452F562F38
:10105000672F782F892F902DF4CF0594979587953A
:101060007795679557954795379527950A95AAF7E8
:101070000F910895EE0FFF1F0590F491E02D099454
:04108000F894FFCF12
:10108400C40500004C6F52612053656E64657200A4
:101094005374617274696E67204C6F52612066618B
:1010A400696C6564210053656E64696E67207061C4
:1010B400636B65743A200068656C6C6F20000000F7
:1010C4000000F000C30186019301FB01060100004A
:1010D40000006B03C20410032A031C03B1030D0AAE
:0E10E400006E616E00696E66006F7666000039
:0200000002C03C
:00000001FF